{
  "_format": "hh-sol-artifact-1",
  "contractName": "TipJar",
  "sourceName": "contracts/TipJar.sol",
  "address": "0x5FbDB2315678afecb367f032d93F642f64180aa3",
  "abi": [
    {
      "inputs": [],
      "stateMutability": "nonpayable",
      "type": "constructor"
    },
    {
      "anonymous": false,
      "inputs": [
        {
          "indexed": true,
          "internalType": "address",
          "name": "from",
          "type": "address"
        },
        {
          "indexed": false,
          "internalType": "string",
          "name": "message",
          "type": "string"
        },
        {
          "indexed": false,
          "internalType": "string",
          "name": "name",
          "type": "string"
        },
        {
          "indexed": false,
          "internalType": "uint256",
          "name": "amount",
          "type": "uint256"
        }
      ],
      "name": "NewTip",
      "type": "event"
    },
    {
      "anonymous": false,
      "inputs": [
        {
          "indexed": false,
          "internalType": "uint256",
          "name": "amount",
          "type": "uint256"
        }
      ],
      "name": "NewWithdrawl",
      "type": "event"
    },
    {
      "anonymous": false,
      "inputs": [
        {
          "indexed": true,
          "internalType": "address",
          "name": "previousOwner",
          "type": "address"
        },
        {
          "indexed": true,
          "internalType": "address",
          "name": "newOwner",
          "type": "address"
        }
      ],
      "name": "OwnershipTransferred",
      "type": "event"
    },
    {
      "inputs": [],
      "name": "getAllTips",
      "outputs": [
        {
          "components": [
            {
              "internalType": "address",
              "name": "sender",
              "type": "address"
            },
            {
              "internalType": "string",
              "name": "message",
              "type": "string"
            },
            {
              "internalType": "string",
              "name": "name",
              "type": "string"
            },
            {
              "internalType": "uint256",
              "name": "timestamp",
              "type": "uint256"
            },
            {
              "internalType": "uint256",
              "name": "amount",
              "type": "uint256"
            }
          ],
          "internalType": "struct TipJar.Tip[]",
          "name": "",
          "type": "tuple[]"
        }
      ],
      "stateMutability": "view",
      "type": "function"
    },
    {
      "inputs": [],
      "name": "getTotalTips",
      "outputs": [
        {
          "internalType": "uint256",
          "name": "",
          "type": "uint256"
        }
      ],
      "stateMutability": "view",
      "type": "function"
    },
    {
      "inputs": [],
      "name": "owner",
      "outputs": [
        {
          "internalType": "address payable",
          "name": "",
          "type": "address"
        }
      ],
      "stateMutability": "view",
      "type": "function"
    },
    {
      "inputs": [
        {
          "internalType": "string",
          "name": "_message",
          "type": "string"
        },
        {
          "internalType": "string",
          "name": "_name",
          "type": "string"
        }
      ],
      "name": "sendTip",
      "outputs": [],
      "stateMutability": "payable",
      "type": "function"
    },
    {
      "inputs": [
        {
          "internalType": "address payable",
          "name": "newOwner",
          "type": "address"
        }
      ],
      "name": "setNewOwner",
      "outputs": [],
      "stateMutability": "nonpayable",
      "type": "function"
    },
    {
      "inputs": [],
      "name": "totalTips",
      "outputs": [
        {
          "internalType": "uint256",
          "name": "",
          "type": "uint256"
        }
      ],
      "stateMutability": "view",
      "type": "function"
    },
    {
      "inputs": [
        {
          "internalType": "address payable",
          "name": "newOwner",
          "type": "address"
        }
      ],
      "name": "transferOwnership",
      "outputs": [],
      "stateMutability": "nonpayable",
      "type": "function"
    },
    {
      "inputs": [],
      "name": "withdraw",
      "outputs": [],
      "stateMutability": "nonpayable",
      "type": "function"
    }
  ],
  "bytecode": "0x608060405234801561001057600080fd5b5033600160006101000a81548173ffffffffffffffffffffffffffffffffffffffff021916908373ffffffffffffffffffffffffffffffffffffffff160217905550611285806100616000396000f3fe60806040526004361061007b5760003560e01c80638da5cb5b1161004e5780638da5cb5b14610109578063990de8ae14610134578063f2fde38b1461015f578063f5a1f5b4146101885761007b565b8063399ddbbd146100805780633ccfd60b146100ab57806354cafb04146100c257806355f203b5146100de575b600080fd5b34801561008c57600080fd5b506100956101b1565b6040516100a29190610de1565b60405180910390f35b3480156100b757600080fd5b506100c061039e565b005b6100dc60048036038101906100d79190610ae2565b61057f565b005b3480156100ea57600080fd5b506100f3610747565b6040516101009190610ec8565b60405180910390f35b34801561011557600080fd5b5061011e610750565b60405161012b9190610dc6565b60405180910390f35b34801561014057600080fd5b50610149610776565b6040516101569190610ec8565b60405180910390f35b34801561016b57600080fd5b5061018660048036038101906101819190610ab9565b61077c565b005b34801561019457600080fd5b506101af60048036038101906101aa9190610ab9565b6108d0565b005b60606002805480602002602001604051908101604052809291908181526020016000905b8282101561039557838290600052602060002090600502016040518060a00160405290816000820160009054906101000a900473ffffffffffffffffffffffffffffffffffffffff1673ffffffffffffffffffffffffffffffffffffffff1673ffffffffffffffffffffffffffffffffffffffff16815260200160018201805461025e90611090565b80601f016020809104026020016040519081016040528092919081815260200182805461028a90611090565b80156102d75780601f106102ac576101008083540402835291602001916102d7565b820191906000526020600020905b8154815290600101906020018083116102ba57829003601f168201915b505050505081526020016002820180546102f090611090565b80601f016020809104026020016040519081016040528092919081815260200182805461031c90611090565b80156103695780601f1061033e57610100808354040283529160200191610369565b820191906000526020600020905b81548152906001019060200180831161034c57829003601f168201915b5050505050815260200160038201548152602001600482015481525050815260200190600101906101d5565b50505050905090565b3373ffffffffffffffffffffffffffffffffffffffff16600160009054906101000a900473ffffffffffffffffffffffffffffffffffffffff1673ffffffffffffffffffffffffffffffffffffffff161461042e576040517f08c379a000000000000000000000000000000000000000000000000000000000815260040161042590610ea8565b60405180910390fd5b600047905060008111610476576040517f08c379a000000000000000000000000000000000000000000000000000000000815260040161046d90610e48565b60405180910390fd5b6000600160009054906101000a900473ffffffffffffffffffffffffffffffffffffffff1673ffffffffffffffffffffffffffffffffffffffff16826040516104be90610db1565b60006040518083038185875af1925050503d80600081146104fb576040519150601f19603f3d011682016040523d82523d6000602084013e610500565b606091505b5050905080610544576040517f08c379a000000000000000000000000000000000000000000000000000000000815260040161053b90610e68565b60405180910390fd5b7f8a904c8c85fa231796f243f36a175a566ff158b34bc9572146d834ff18f29075826040516105739190610ec8565b60405180910390a15050565b343373ffffffffffffffffffffffffffffffffffffffff163110156105d9576040517f08c379a00000000000000000000000000000000000000000000000000000000081526004016105d090610e88565b60405180910390fd5b60016000808282546105eb9190610faa565b9250508190555060026040518060a001604052803373ffffffffffffffffffffffffffffffffffffffff16815260200184815260200183815260200142815260200134815250908060018154018082558091505060019003906000526020600020906005020160009091909190915060008201518160000160006101000a81548173ffffffffffffffffffffffffffffffffffffffff021916908373ffffffffffffffffffffffffffffffffffffffff16021790555060208201518160010190805190602001906106bd929190610999565b5060408201518160020190805190602001906106da929190610999565b50606082015181600301556080820151816004015550503373ffffffffffffffffffffffffffffffffffffffff167fb1c1391b0c6c1e7244a4134896b4bc3f12d2c0cdfef990fac76eec58980a8baa83833460405161073b93929190610e03565b60405180910390a25050565b60008054905090565b600160009054906101000a900473ffffffffffffffffffffffffffffffffffffffff1681565b60005481565b600073ffffffffffffffffffffffffffffffffffffffff168173ffffffffffffffffffffffffffffffffffffffff1614156107b657600080fd5b600160009054906101000a900473ffffffffffffffffffffffffffffffffffffffff1673ffffffffffffffffffffffffffffffffffffffff163373ffffffffffffffffffffffffffffffffffffffff161461081057600080fd5b8073ffffffffffffffffffffffffffffffffffffffff16600160009054906101000a900473ffffffffffffffffffffffffffffffffffffffff1673ffffffffffffffffffffffffffffffffffffffff167f8be0079c531659141344cd1fd0a4f28419497f9722a3daafe3b4186f6b6457e060405160405180910390a380600160006101000a81548173ffffffffffffffffffffffffffffffffffffffff021916908373ffffffffffffffffffffffffffffffffffffffff16021790555050565b6108d98161077c565b8073ffffffffffffffffffffffffffffffffffffffff16600160009054906101000a900473ffffffffffffffffffffffffffffffffffffffff1673ffffffffffffffffffffffffffffffffffffffff167f8be0079c531659141344cd1fd0a4f28419497f9722a3daafe3b4186f6b6457e060405160405180910390a380600160006101000a81548173ffffffffffffffffffffffffffffffffffffffff021916908373ffffffffffffffffffffffffffffffffffffffff16021790555050565b8280546109a590611090565b90600052602060002090601f0160209004810192826109c75760008555610a0e565b82601f106109e057805160ff1916838001178555610a0e565b82800160010185558215610a0e579182015b82811115610a0d5782518255916020019190600101906109f2565b5b509050610a1b9190610a1f565b5090565b5b80821115610a38576000816000905550600101610a20565b5090565b6000610a4f610a4a84610f08565b610ee3565b905082815260208101848484011115610a6757600080fd5b610a7284828561104e565b509392505050565b600081359050610a8981611238565b92915050565b600082601f830112610aa057600080fd5b8135610ab0848260208601610a3c565b91505092915050565b600060208284031215610acb57600080fd5b6000610ad984828501610a7a565b91505092915050565b60008060408385031215610af557600080fd5b600083013567ffffffffffffffff811115610b0f57600080fd5b610b1b85828601610a8f565b925050602083013567ffffffffffffffff811115610b3857600080fd5b610b4485828601610a8f565b9150509250929050565b6000610b5a8383610d16565b905092915050565b610b6b81611012565b82525050565b610b7a81611000565b82525050565b6000610b8b82610f49565b610b958185610f6c565b935083602082028501610ba785610f39565b8060005b85811015610be35784840389528151610bc48582610b4e565b9450610bcf83610f5f565b925060208a01995050600181019050610bab565b50829750879550505050505092915050565b6000610c0082610f54565b610c0a8185610f88565b9350610c1a81856020860161105d565b610c2381611180565b840191505092915050565b6000610c3982610f54565b610c438185610f99565b9350610c5381856020860161105d565b610c5c81611180565b840191505092915050565b6000610c74601d83610f99565b9150610c7f82611191565b602082019050919050565b6000610c97600f83610f99565b9150610ca2826111ba565b602082019050919050565b6000610cba601c83610f99565b9150610cc5826111e3565b602082019050919050565b6000610cdd601783610f99565b9150610ce88261120c565b602082019050919050565b6000610d00600083610f7d565b9150610d0b82611235565b600082019050919050565b600060a083016000830151610d2e6000860182610b71565b5060208301518482036020860152610d468282610bf5565b91505060408301518482036040860152610d608282610bf5565b9150506060830151610d756060860182610d93565b506080830151610d886080860182610d93565b508091505092915050565b610d9c81611044565b82525050565b610dab81611044565b82525050565b6000610dbc82610cf3565b9150819050919050565b6000602082019050610ddb6000830184610b62565b92915050565b60006020820190508181036000830152610dfb8184610b80565b905092915050565b60006060820190508181036000830152610e1d8186610c2e565b90508181036020830152610e318185610c2e565b9050610e406040830184610da2565b949350505050565b60006020820190508181036000830152610e6181610c67565b9050919050565b60006020820190508181036000830152610e8181610c8a565b9050919050565b60006020820190508181036000830152610ea181610cad565b9050919050565b60006020820190508181036000830152610ec181610cd0565b9050919050565b6000602082019050610edd6000830184610da2565b92915050565b6000610eed610efe565b9050610ef982826110c2565b919050565b6000604051905090565b600067ffffffffffffffff821115610f2357610f22611151565b5b610f2c82611180565b9050602081019050919050565b6000819050602082019050919050565b600081519050919050565b600081519050919050565b6000602082019050919050565b600082825260208201905092915050565b600081905092915050565b600082825260208201905092915050565b600082825260208201905092915050565b6000610fb582611044565b9150610fc083611044565b9250827fffffffffffffffffffffffffffffffffffffffffffffffffffffffffffffffff03821115610ff557610ff46110f3565b5b828201905092915050565b600061100b82611024565b9050919050565b600061101d82611024565b9050919050565b600073ffffffffffffffffffffffffffffffffffffffff82169050919050565b6000819050919050565b82818337600083830152505050565b60005b8381101561107b578082015181840152602081019050611060565b8381111561108a576000848401525b50505050565b600060028204905060018216806110a857607f821691505b602082108114156110bc576110bb611122565b5b50919050565b6110cb82611180565b810181811067ffffffffffffffff821117156110ea576110e9611151565b5b80604052505050565b7f4e487b7100000000000000000000000000000000000000000000000000000000600052601160045260246000fd5b7f4e487b7100000000000000000000000000000000000000000000000000000000600052602260045260246000fd5b7f4e487b7100000000000000000000000000000000000000000000000000000000600052604160045260246000fd5b6000601f19601f8301169050919050565b7f596f752068617665206e6f20657468657220746f207769746864726177000000600082015250565b7f5769746864726177206661696c65640000000000000000000000000000000000600082015250565b7f596f756420646f6e2774206861766520656e6f7567682066756e647300000000600082015250565b7f63616c6c6572206973206e6f7420746865206f776e6572000000000000000000600082015250565b50565b61124181611012565b811461124c57600080fd5b5056fea2646970667358221220fbccc7274d3ab892d1fda74ab62757fc0d39fc5a6f5d8bc947043525b0eea03a64736f6c63430008040033",
  "linkReferences": {},
  "deployedLinkReferences": {}
}